:100000000C945A000C9477000C9477000C947700B1
:100010000C9477000C9477000C9477000C94770084
:100020000C9477000C9477000C9477000C94770074
:100030000C9477000C9477000C9477000C94770064
:100040000C949E030C94BE000C9477000C947700E3
:100050000C9477000C9477000C9477000C94770044
:100060000C9477000C9477000C9477000C94770034
:100070000C9477000C9477000C9477000C94770024
:100080000C9477000C9477000C9477000C94770014
:100090000C9477000C9477000C9477000C94770004
:1000A0000C9477000C9477000C9477000C947700F4
:1000B0000C94770011241FBECFEFD8E0DEBFCDBF78
:1000C00011E0A0E0B1E0EEEEFFE002C005900D927D
:1000D000A630B107D9F721E0A6E0B1E001C01D923A
:1000E000A033B207E1F70E94E4000C94F5070C94EA
:1000F0000000249A84B184B980EC8CBD1092060172
:10010000089580E090E00EC080910D01EFE0F1E0F5
:100110008583918184EB282F291B21839381891B5F
:1001200083830895FC01E85FFE4F2081265AFC017D
:10013000E15FFE4F208301968530910599F7E4CF6A
:10014000809106010895109206011092070108950A
:10015000CF93DF93D82FC92F0E948100ED2FFC2F62
:1001600080E090E0DC01A15FBE4F2C9121930196CD
:1001700086309105B9F7DF91CF9108951F920F92C4
:100180000FB60F9211248F939F93EF93FF938EB529
:1001900090910701973078F4E091070191E09E0F6C
:1001A00090930701F0E0E85FFE4F8083843619F4F6
:1001B00081E080930601FF91EF919F918F910F90C5
:1001C0000FBE0F901F901895CF93DF9300D000D0F3
:1001D00000D0CDB7DEB7F894A8950FB6F894A895DF
:1001E00080916000886180936000109260000FBE73
:1001F00086E0E0E0F1E0DE01119601900D928A9533
:10020000E1F70E9479000E9419017894CE010196CD
:100210000E9430030E94A0008823E1F3CE010196E2
:100220000E94A800CE0101960E9430030E94A30004
:10023000F1CF0F931F93CF93DF93C0E8D0E0888175
:100240008260888341E850E0FA0180818861808380
:10025000A0E9B0E08C9182608C9321E930E0F90153
:1002600080818861808300EA10E0F80180818260EB
:10027000808381EA90E0FC01608168616083FA011B
:10028000608162606083F901408142604083FC01CB
:1002900020812260208380E49CE9909387008093F2
:1002A000860090939700809396009093A700809388
:1002B000A6008881806888838C9180688C93F8017F
:1002C0008081806880838AB183608AB9219A85B5EC
:1002D000856085BDEEE6F0E08081816080838AB133
:1002E00088668AB9DF91CF911F910F910895AF92DF
:1002F000BF92CF92DF92EF92FF920F931F93CF9313
:10030000DF935C016B018C01EB017B018AE0E80E5D
:10031000F11CF80161918F0170E080E090E00E9493
:10032000D10620E030E044E353E40E94300620E0B0
:1003300030EC43EF54E40E94880720E030E04AEFBD
:1003400053E40E94BF050E94A20669937993CE15DB
:10035000DF05F9F6F501658170E080E090E00E942C
:10036000D10620E030E044E353E40E94300620E070
:1003700030E046E154E40E94880720E030E046E1A6
:1003800054E40E94BF050E94A206F60173876287AB
:10039000DF91CF911F910F91FF90EF90DF90CF9061
:1003A000BF90AF90089560911501709116018091F2
:1003B00017019091180120912C0130912D0140914D
:1003C0002E0150912F010E94830718160CF0A4C033
:1003D000609115017091160180911701909118019B
:1003E0002091190130911A0140911B0150911C017B
:1003F0000E94830718160CF062C08091150190913D
:100400001601A0911701B0911801EDE1F1E080878C
:100410009187A287B38786E08687609119017091E2
:100420001A0180911B0190911C0120912C013091A7
:100430002D0140912E0150912F010E948307181623
:10044000FCF48091190190911A01A0911B01B091C7
:100450001C01EDE1F1E084839583A683B78380914D
:100460002C0190912D01A0912E01B0912F0180833C
:100470009183A283B38383E0858785E08487089591
:1004800080912C0190912D01A0912E01B0912F010E
:10049000EDE1F1E084839583A683B7838091190110
:1004A00090911A01A0911B01B0911C01808391834E
:1004B000A283B38385E0858783E084870895809154
:1004C000190190911A01A0911B01B0911C01EDE15D
:1004D000F1E080879187A287B38780911501909181
:1004E0001601A0911701B091180184839583A6830A
:1004F000B78380912C0190912D01A0912E01B09194
:100500002F0180839183A283B38383E0868786E073
:10051000858785E08487089560912C0170912D0175
:1005200080912E0190912F012091190130911A0193
:1005300040911B0150911C010E94830718160CF07A
:1005400062C080912C0190912D01A0912E01B0915B
:100550002F01EDE1F1E080879187A287B38785E0E5
:100560008687609115017091160180911701909115
:1005700018012091190130911A0140911B015091ED
:100580001C010E9483071816FCF4809115019091BC
:100590001601A0911701B0911801EDE1F1E08483FB
:1005A0009583A683B7838091190190911A01A09138
:1005B0001B01B0911C0180839183A283B38386E0E9
:1005C000858783E0848708958091190190911A01AD
:1005D000A0911B01B0911C01EDE1F1E084839583B2
:1005E000A683B7838091150190911601A091170100
:1005F000B091180180839183A283B38383E08587C0
:1006000086E0848708958091190190911A01A09144
:100610001B01B0911C01EDE1F1E080879187A28779
:10062000B38780912C0190912D01A0912E01B09162
:100630002F0184839583A683B783809115019091C0
:100640001601A0911701B091180180839183A283B4
:10065000B38383E0868785E0858786E08487089575
:10066000CF93DF93CDB7DEB72C970FB6F894DEBFEC
:100670000FBECDBFBE016F5F7F4F0E947701FE01AD
:1006800031969E01255F3F4F44EC59E08081918176
:10069000853C994010F0518340833296E217F3076E
:1006A000A9F769817A8180E090E00E94D106609389
:1006B00015017093160180931701909318016B81B7
:1006C0007C8180E090E00E94D10660932C017093C1
:1006D0002D0180932E0190932F018D819E81880F93
:1006E000991F90938900809388006F81788580E0BE
:1006F00090E00E94D1066093190170931A018093D3
:100700001B0190931C0189859A85880F991F9093EE
:10071000A9008093A8008B859C85880F991F9093D2
:100720009900809398000E94D3012C960FB6F894FC
:10073000DEBF0FBECDBFDF91CF9108951F920F9204
:100740000FB60F9211244F925F926F927F928F9209
:100750009F92AF92BF92CF92DF92EF92FF921F9340
:100760002F933F934F935F936F937F938F939F93B9
:10077000AF93BF93CF93DF93EF93FF9378948BB1B5
:1007800088668BB9C0901D01D0901E01E0901F01BA
:10079000F09020012BEA3AEA4AEA50E4C701B60198
:1007A0000E9488074B015C0120E030E040E85FE3F5
:1007B0000E942B0688230CF470C020E030E040E853
:1007C00050E4C701B6010E9488072B013C0120E0DC
:1007D0003FEF4FE757E40E94830718160CF045C01F
:1007E00020E030E04AE754E4C701B6010E94300639
:1007F0004B015C0120E030E04AE755E40E948807A5
:100800006B017C0120E030E040E85FE30E942B06B2
:1008100088232CF120E03FEF4FE757E4C701B601F2
:100820000E9483071816B4F420E030E040E251E45F
:10083000C501B4010E9488070E94A20661157105D6
:1008400069F120E931E0C9010197F1F761507109BF
:10085000D1F724C0C701B6010E94A20602C061E020
:1008600070E0CB010197F1F719C020E030E04FE7CD
:1008700053E4C501B4010E948307181644F4C30170
:10088000B2010E94A206CB010197F1F70AC0C5018F
:10089000B4010E94A206162F01C011E0612F6A95D3
:1008A000F1F7EDE1F1E034852BB181E090E002C099
:1008B000880F991F3A95E2F78095909582238BB91E
:1008C0006481758186819781208131814281538144
:1008D0000E94BE056B017C012BEA3AEA4AEA50E429
:1008E0000E9488074B015C0120E030E040E85FE3B4
:1008F0000E942B0688230CF470C020E030E040E812
:1009000050E4C701B6010E9488072B013C0120E09A
:100910003FEF4FE757E40E94830718160CF045C0DD
:1009200020E030E04AE754E4C701B6010E943006F7
:100930004B015C0120E030E04AE755E40E94880763
:100940006B017C0120E030E040E85FE30E942B0671
:1009500088232CF120E03FEF4FE757E4C701B601B1
:100960000E9483071816B4F420E030E040E251E41E
:10097000C501B4010E9488070E94A2066115710595
:1009800069F120E931E0C9010197F1F7615071097E
:10099000D1F724C0C701B6010E94A20602C061E0DF
:1009A00070E0CB010197F1F719C020E030E04FE78C
:1009B00053E4C501B4010E948307181644F4C3012F
:1009C000B2010E94A206CB010197F1F709C0C5014F
:1009D000B4010E94A206D62F01C0D1E0DA95F1F74A
:1009E000EDE1F1E035852BB181E090E002C0880FA8
:1009F000991F3A95E2F78095909582238BB960858F
:100A000071858285938524813581468157810E9435
:100A1000BE056B017C012BEA3AEA4AEA50E40E94E7
:100A200088074B015C0120E030E040E85FE30E9472
:100A30002B0688230CF470C020E030E040E850E43E
:100A4000C701B6010E9488072B013C0120E03FEF5F
:100A50004FE757E40E94830718160CF045C020E0CA
:100A600030E04AE754E4C701B6010E9430064B016A
:100A70005C0120E030E04AE755E40E9488076B0102
:100A80007C0120E030E040E85FE30E942B068823F1
:100A90002CF120E03FEF4FE757E4C701B6010E9479
:100AA00083071816B4F420E030E040E251E4C501B9
:100AB000B4010E9488070E94A2066115710569F1C0
:100AC00020E931E0C9010197F1F761507109D1F7CF
:100AD00024C0C701B6010E94A20602C061E070E016
:100AE000CB010197F1F719C020E030E04FE753E464
:100AF000C501B4010E948307181644F4C301B20172
:100B00000E94A206CB010197F1F709C0C501B4010B
:100B10000E94A206C62F01C0C1E0CA95F1F730912C
:100B20002B012BB181E090E002C0880F991F3A950C
:100B3000E2F78095909582238BB916BCFF91EF91D7
:100B4000DF91CF91BF91AF919F918F917F916F91E5
:100B50005F914F913F912F911F91FF90EF90DF9008
:100B6000CF90BF90AF909F908F907F906F905F904D
:100B70004F900F900FBE0F901F9018955058BB27A5
:100B8000AA270E94D6050C9449070E943B0738F01B
:100B90000E94420720F039F49F3F19F426F40C9488
:100BA00038070EF4E095E7FB0C943207E92F0E941A
:100BB0005A0758F3BA17620773078407950720F09E
:100BC00079F4A6F50C947C070EF4E0950B2EBA2F61
:100BD000A02D0B01B90190010C01CA01A001112443
:100BE000FF27591B99F0593F50F4503E68F11A16EF
:100BF000F040A22F232F342F4427585FF3CF469580
:100C000037952795A795F0405395C9F77EF41F16A1
:100C1000BA0B620B730B840BBAF09150A1F0FF0F6B
:100C2000BB1F661F771F881FC2F70EC0BA0F621F57
:100C3000731F841F48F4879577956795B795F79547
:100C40009E3F08F0B0CF9395880F08F09927EE0FDC
:100C50009795879508950E940E0708F481E00895FE
:100C60000E9444060C9449070E94420758F00E94D3
:100C70003B0740F029F45F3F29F00C9432075111F3
:100C80000C947D070C9438070E945A0768F3992347
:100C9000B1F3552391F3951B550BBB27AA27621778
:100CA0007307840738F09F5F5F4F220F331F441F85
:100CB000AA1FA9F335D00E2E3AF0E0E832D09150B9
:100CC0005040E695001CCAF72BD0FE2F29D0660FA6
:100CD000771F881FBB1F261737074807AB07B0E8E9
:100CE00009F0BB0B802DBF01FF2793585F4F3AF0EF
:100CF0009E3F510578F00C9432070C947D075F3FBE
:100D0000E4F3983ED4F3869577956795B795F79574
:100D10009F5FC9F7880F911D9695879597F908955C
:100D2000E1E0660F771F881FBB1F621773078407F8
:100D3000BA0720F0621B730B840BBA0BEE1F88F707
:100D4000E09508950E94620788F09F5798F0B92FA8
:100D50009927B751B0F0E1F0660F771F881F991FF0
:100D60001AF0BA95C9F714C0B13091F00E947C070F
:100D7000B1E008950C947C07672F782F8827B85F1F
:100D800039F0B93FCCF3869577956795B395D9F748
:100D90003EF490958095709561957F4F8F4F9F4F52
:100DA0000895E89409C097FB3EF49095809570955E
:100DB00061957F4F8F4F9F4F9923A9F0F92F96E9A7
:100DC000BB279395F695879577956795B795F1111C
:100DD000F8CFFAF4BB0F11F460FF1BC06F5F7F4FB9
:100DE0008F4F9F4F16C0882311F096E911C07723CB
:100DF00021F09EE8872F762F05C0662371F096E8D4
:100E0000862F70E060E02AF09A95660F771F881FA2
:100E1000DAF7880F9695879597F90895990F000846
:100E2000550FAA0BE0E8FEEF16161706E807F907BC
:100E3000C0F012161306E407F50798F0621B730B57
:100E4000840B950B39F40A2661F0232B242B252BD8
:100E500021F408950A2609F4A140A6958FEF811D7B
:100E6000811D089597F99F6780E870E060E008951C
:100E70009FEF80EC089500240A94161617061806B2
:100E80000906089500240A9412161306140605068E
:100E90000895092E0394000C11F4882352F0BB0F1F
:100EA00040F4BF2B11F460FF04C06F5F7F4F8F4F82
:100EB0009F4F089557FD9058440F551F59F05F3FBD
:100EC00071F04795880F97FB991F61F09F3F79F06C
:100ED00087950895121613061406551FF2CF4695EE
:100EE000F1DF08C0161617061806991FF1CF869570
:100EF0007105610508940895E894BB276627772754
:100F0000CB0197F908950E940E0708F48FEF08951A
:100F10000E949B070C9449070E943B0738F00E94EF
:100F2000420720F0952311F00C9432070C943807F7
:100F300011240C947D070E945A0770F3959FC1F30A
:100F4000950F50E0551F629FF001729FBB27F00D77
:100F5000B11D639FAA27F00DB11DAA1F649F6627CC
:100F6000B00DA11D661F829F2227B00DA11D621F1B
:100F7000739FB00DA11D621F839FA00D611D221FD5
:100F8000749F3327A00D611D231F849F600D211DB9
:100F9000822F762F6A2F11249F5750409AF0F1F03C
:100FA00088234AF0EE0FFF1FBB1F661F771F881FA5
:100FB00091505040A9F79E3F510580F00C943207A4
:100FC0000C947D075F3FE4F3983ED4F386957795C4
:100FD0006795B795F795E7959F5FC1F7FE2B880F4B
:0E0FE000911D9695879597F90895F894FFCF87
:060FEE005A5A5A5A5A003B
:00000001FF
